{
  "contractName": "StoreContract",
  "abi": [
    {
      "inputs": [
        {
          "internalType": "int32",
          "name": "data",
          "type": "int32"
        }
      ],
      "name": "helloFunction",
      "outputs": [
        {
          "internalType": "uint256",
          "name": "",
          "type": "uint256"
        }
      ],
      "stateMutability": "view",
      "type": "function"
    }
  ],
  "bytecode": "0x608060405234801561000f575f80fd5b506101188061001d5f395ff3fe6080604052348015600e575f80fd5b50600436106026575f3560e01c80637d4037ca14602a575b5f80fd5b60406004803603810190603c9190608f565b6054565b604051604b919060cb565b60405180910390f35b5f919050565b5f80fd5b5f8160030b9050919050565b607181605e565b8114607a575f80fd5b50565b5f81359050608981606a565b92915050565b5f6020828403121560a15760a0605a565b5b5f60ac84828501607d565b91505092915050565b5f819050919050565b60c58160b5565b82525050565b5f60208201905060dc5f83018460be565b9291505056fea2646970667358221220fc75d9e4dd14071f764b9023095511dc90845b2720d0b50125b09af75177289564736f6c63430008150033",
  "immutableReferences": {},
  "source": "// SPDX-License-Identifier: MIT\npragma solidity >=0.4.22 <0.9.0;\n\ncontract StoreContract {\n  int32 data;\n  \n\n  function helloFunction(int32 data) public view returns(uint) {\n    data = data;\n  }\n}\n",
  "sourcePath": "E:\\intellijproject\\nftproject\\nftproject\\nftserver\\src\\main\\resources\\contracts\\StoreContract.sol",
  "compiler": {
    "name": "solc",
    "version": "0.8.21+commit.d9974bed.Emscripten.clang"
  },
  "schemaVersion": "3.4.16",
  "updatedAt": "2024-06-09T08:27:23.660Z",
  "devdoc": {
    "kind": "dev",
    "methods": {},
    "version": 1
  },
  "userdoc": {
    "kind": "user",
    "methods": {},
    "version": 1
  }
}