{
  "contractName": "StoreContract",
  "abi": [
    {
      "anonymous": false,
      "inputs": [
        {
          "indexed": false,
          "internalType": "address",
          "name": "owner",
          "type": "address"
        }
      ],
      "name": "Transaction",
      "type": "event"
    },
    {
      "inputs": [
        {
          "internalType": "int32",
          "name": "data",
          "type": "int32"
        },
        {
          "internalType": "address",
          "name": "owner",
          "type": "address"
        }
      ],
      "name": "helloFunction",
      "outputs": [
        {
          "internalType": "uint256",
          "name": "",
          "type": "uint256"
        }
      ],
      "stateMutability": "nonpayable",
      "type": "function"
    }
  ],
  "bytecode": "0x608060405234801561000f575f80fd5b506101fc8061001d5f395ff3fe608060405234801561000f575f80fd5b5060043610610029575f3560e01c80630226cf9e1461002d575b5f80fd5b6100476004803603810190610042919061012f565b61005d565b6040516100549190610185565b60405180910390f35b5f7ff0c55d049e61d6dcd81c1f2715f135c87551e981a34759c240851595cfcb38c78260405161008d91906101ad565b60405180910390a192915050565b5f80fd5b5f8160030b9050919050565b6100b48161009f565b81146100be575f80fd5b50565b5f813590506100cf816100ab565b92915050565b5f73ffffffffffffffffffffffffffffffffffffffff82169050919050565b5f6100fe826100d5565b9050919050565b61010e816100f4565b8114610118575f80fd5b50565b5f8135905061012981610105565b92915050565b5f80604083850312156101455761014461009b565b5b5f610152858286016100c1565b92505060206101638582860161011b565b9150509250929050565b5f819050919050565b61017f8161016d565b82525050565b5f6020820190506101985f830184610176565b92915050565b6101a7816100f4565b82525050565b5f6020820190506101c05f83018461019e565b9291505056fea26469706673582212207bf8e6dc4aa8636d7a72f02e1539e847a7836f94dece3323989697c28aa062f364736f6c63430008150033",
  "immutableReferences": {},
  "source": "// SPDX-License-Identifier: MIT\npragma solidity >=0.4.22 <0.9.0;\n\ncontract StoreContract {\n  int32 data;\n\n  event Transaction(address owner);\n\n  function helloFunction(int32 data,address owner) public returns(uint) {\n    data = data;\n    emit Transaction(owner);\n  }\n}\n",
  "sourcePath": "E:\\intellijproject\\nftproject\\nftproject\\nftserver\\src\\main\\resources\\contracts\\StoreContract.sol",
  "compiler": {
    "name": "solc",
    "version": "0.8.21+commit.d9974bed.Emscripten.clang"
  },
  "schemaVersion": "3.4.16",
  "updatedAt": "2024-06-09T08:54:14.645Z",
  "devdoc": {
    "kind": "dev",
    "methods": {},
    "version": 1
  },
  "userdoc": {
    "kind": "user",
    "methods": {},
    "version": 1
  }
}